:1000000045C0000060C000005EC000005CC0000091
:100010005AC0000058C0000057C0000054C0000083
:1000200052C0000050C000004EC000004CC0000094
:100030004AC0000048C0000046C0000044C00000A4
:1000400042C0000040C000003EC000003CC00000B4
:100050003AC0000038C0000036C0000034C00000C4
:1000600032C0000030C000002EC000002CC00000D4
:100070002AC0000028C0000026C0000024C00000E4
:1000800022C0000020C000001EC0000011241FBEBE
:10009000CFEFD0E1DEBFCDBF11E0A0E0B1E0E4E8FA
:1000A000F1E000E00BBF02C007900D92A032B10753
:1000B000D9F721E0A0E2B1E001C01D92A132B20760
:1000C000E1F713D05DC09CCF1F920F920FB60F9235
:1000D00011248F93809120018095809320018F912E
:1000E0000F900FBE0F901F901895CF93DF93CDB751
:1000F000DEB7A0970FB6F894DEBF0FBECDBF12B823
:100100008FEF8ABB80E289BF88E08ABF789480E263
:10011000E0E0F1E0DE01119601900D928A95E1F7A1
:1001200020E030E080912001882361F0F901EE0F9A
:10013000FF1F81E090E08C0F9D1FE80FF91F808169
:100140008BBBF0CFF901EE0FFF1F81E090E08C0F29
:100150009D1FE80FF91F80818BBB9FED4EEA86E162
:10016000915040408040E1F700C0000080819181C3
:100170008137910511F42FEF3FEF2F5F3F4FD2CF23
:04018000F894FFCF21
:100184003F0006005B004F0066006D007D00270005
:100194007F006F0077007C0039005E0079007100F9
:00000001FF
