:1000000045C0000058C0000056C0000054C00000A9
:1000100052C0000076C00000B1C00000ECC000007B
:1000200006C1000048C0000046C0000044C00000F7
:1000300042C0000040C000003EC000003CC00000C4
:100040003AC0000038C0000036C0000034C00000D4
:1000500032C0000030C000002EC000002CC00000E4
:100060002AC0000028C0000026C0000024C00000F4
:1000700022C0000020C000001EC000001CC0000004
:100080001AC0000018C0000016C0000011241FBED6
:10009000CFEFD0E1DEBFCDBF11E0A0E0B1E0EEEAEE
:1000A000F2E000E00BBF02C007900D92A231B10751
:1000B000D9F702D0FAC0A4CF88E082B910928B00A1
:1000C00089E180938A0010928C001092890010922E
:1000D00088008FEF8ABF80EF89BF88BF78948091B6
:1000E00000018823E1F32FEF8FE39BE02150804054
:1000F0009040E1F700C0000010928B0010920001C8
:10010000EECF1F920F920FB60F9211240BB60F92E3
:100110002F933F934F935F936F937F938F939F930F
:10012000AF93BF93EF93FF93F89420910101309127
:10013000020140E050E060E070E488E390E093D09A
:10014000309381002093800080E480938B0081E0D5
:10015000809300017894FF91EF91BF91AF919F91AF
:100160008F917F916F915F914F913F912F910F9060
:100170000BBE0F900FBE0F901F9018951F920F92FD
:100180000FB60F9211240BB60F922F933F934F93FC
:100190005F936F937F938F939F93AF93BF93EF93EF
:1001A000FF93F894209103013091040140E050E066
:1001B00060E070E488E390E056D0309381002093B3
:1001C000800080E480938B0081E08093000178942C
:1001D000FF91EF91BF91AF919F918F917F916F911F
:1001E0005F914F913F912F910F900BBE0F900FBEDB
:1001F0000F901F9018951F920F920FB60F92112417
:100200008F939F93F89487ED95E19093810080936D
:10021000800080E480938B0081E0809300017894DB
:100220009F918F910F900FBE0F901F9018951F9266
:100230000F920FB60F9211248F939F93F8948DE92C
:1002400094E1909381008093800080E480938B0000
:1002500081E08093000178949F918F910F900FBE61
:100260000F901F901895A1E21A2EAA1BBB1BFD012F
:100270000DC0AA1FBB1FEE1FFF1FA217B307E40785
:10028000F50720F0A21BB30BE40BF50B661F771FDD
:10029000881F991F1A9469F76095709580959095BD
:0E02A0009B01AC01BD01CF010895F894FFCF82
:1002AE00010B024B0293020B020F037003DB0316CA
:0202BE0004003A
:00000001FF
