:1000000045C0000058C0000056C0000054C00000A9
:1000100052C0000050C000004EC000004CC00000A4
:100020004AC0000048C0000046C0000044C00000B4
:1000300042C0000040C000003EC000003CC00000C4
:100040003AC0000038C0000036C0000034C00000D4
:1000500032C0000030C000002EC000002CC00000E4
:100060002AC0000028C0000026C0000024C00000F4
:1000700022C0000020C000001EC000001CC0000004
:100080001AC0000018C0000016C0000011241FBED6
:10009000CFEFD0E1DEBFCDBF11E0A0E0B1E0E2E5FF
:1000A000F1E000E00BBF02C007900D92AA30B1074B
:1000B000D9F710D04CC0A4CF5D9BFECF8CB98BB1CB
:1000C00080628BB908955F9BFECF8CB19BB1906825
:1000D0009BB90895CF93DF93CDB7DEB728970FB6BE
:1000E000F894DEBF0FBECDBF8EEF82B91BB888E19A
:1000F0008AB986E0809395001092900083E089B9D8
:1001000088E0E2E0F1E0DE01119601900D928A951F
:10011000E1F710E002C01F5FCFDFE1E0F0E0EC0F9D
:10012000FD1FE10FF11D80818111F5CFCCDFC4DF10
:1001300080E091E0C1DF80E0BFDF00E010E0802FD1
:10014000BBDF0F5F1F4F0A301105C9F7EFCFF894DF
:02015000FFCFDF
:0A0152000A004E554D203E3E2000ED
:00000001FF
