:1000000045C0000058C0000056C0000054C00000A9
:1000100052C0000050C000004EC000004CC00000A4
:100020004AC0000048C0000046C0000044C00000B4
:1000300042C0000040C000003EC000003CC00000C4
:100040003AC0000038C0000036C0000034C00000D4
:1000500032C0000030C000002EC000002CC00000E4
:100060002AC0000028C0000026C0000024C00000F4
:1000700022C0000020C000001EC000001CC0000004
:100080001AC0000018C0000016C0000011241FBED6
:10009000CFEFD0E1DEBFCDBF11E0A0E0B1E0E8E3FB
:1000A000F1E000E00BBF02C007900D92A231B10752
:1000B000D9F709D03FC0A4CF5D9BFECF8CB98BB1DF
:1000C00080628BB908951F93CF93DF93CDB7DEB7CE
:1000D00062970FB6F894DEBF0FBECDBF82E1E0E0BD
:1000E000F1E0DE01119601900D928A95E1F71BB8BF
:1000F00088E18AB986E0809395001092900083E0B1
:1001000089B910E002C01F5FD7DFE1E0F0E0EC0F3B
:10011000FD1FE10FF11D80818111F5CF80E090E09E
:1001200062960FB6F894DEBF0FBECDBFDF91CF91C0
:080130001F910895F894FFCF20
:1001380048656C6C6F2120576F726C642121200D0B
:020148000A00AB
:00000001FF
