:1000000045C0000060C000005EC000005CC0000091
:100010005AC0000058C0000056C0000054C0000084
:10002000D8C0000050C000004EC000004CC000000E
:100030004AC0000048C0000046C0000044C00000A4
:1000400042C0000040C000003EC000003CC00000B4
:100050003AC0000038C0000036C0000034C00000C4
:1000600032C0000030C000002EC000002CC00000D4
:100070002AC0000028C0000026C0000024C00000E4
:1000800022C0000020C000001EC0000011241FBEBE
:10009000CFEFD0E1DEBFCDBF11E0A0E0B1E0E2E6FE
:1000A000F6E000E00BBF02C007900D92AA33B10743
:1000B000D9F721E0AAE3B1E001C01D92AB33B2074A
:1000C000E1F75BD2CCC29CCFE5E6F0E09081916095
:1000D000908390819D7F908390819460908390E144
:1000E0009A95F1F700C08BBB80E18A95F1F700C0CB
:1000F00080818B7F80830895E5E6F0E090819E7F8C
:10010000908390819D7F908390819460908390E113
:100110009A95F1F700C08BBB80E18A95F1F700C09A
:1001200080818B7F80830895CFDF89EF90E00197F6
:10013000F1F700C000000895CF93DF93EC0102C0F7
:10014000F3DF219688818111FBCFDF91CF91089554
:1001500090E4899F600D1124862F8068CDDF81EEA9
:1001600094E00197F1F700C00000089581E0C4DF3A
:1001700083EF91E00197F1F700C00000089588E354
:10018000BBDF83EF91E00197F1F700C0000088E347
:10019000B3DF83EF91E00197F1F700C0000088E33F
:1001A000ABDF83EF91E00197F1F700C000008CE036
:1001B000A3DF83EF91E00197F1F700C0000086E034
:1001C0009BDF83EF91E00197F1F700C00000CECFF5
:1001D00008951F920F920FB60F9211248F93809162
:1001E0003A01809580933A018F910F900FBE0F9046
:1001F0001F90189588E08093620083E397E0019751
:10020000F1F780B18770813009F460C080B18770E8
:10021000823009F45DC080B18770843009F45AC01F
:100220008FEF97E40197F1F700C0000080E1809321
:10023000620083E397E00197F1F780B18770813026
:1002400009F44AC080B18770823009F447C080B198
:100250008770843009F444C08FEF97E40197F1F779
:1002600000C0000080E28093620083E397E0019782
:10027000F1F780B187708130A9F180B18770823049
:1002800099F180B18770843089F18FEF97E40197FD
:10029000F1F700C0000080E48093620083E397E000
:1002A0000197F1F780B18770813011F180B18770CB
:1002B000823001F180B187708430F1F08FEF97E4E4
:1002C0000197F1F700C0000080E0089581E30895F0
:1002D00082E3089583E3089584E3089585E3089510
:1002E00086E3089587E3089588E3089589E30895F0
:1002F0008AE2089580E3089583E2089560E171E061
:10030000A5D1892B11F481E0089580E0089580E162
:1003100085BB2FEF8FE796E1215080409040E1F7B9
:1003200000C0000080E285BB2FEF8FE796E12150EF
:1003300080409040E1F700C0000080E485BB2FEFD3
:100340008FE796E1215080409040E1F700C0000027
:1003500080E885BB2FEF8FEF9CE2215080409040DA
:10036000E1F700C0000008950F931F93CF93DF9330
:100370008130A9F52EC0FE01EE0FFF1FE050FF4FA8
:100380002081318140E050E060E070E880E790E05B
:100390003BD137BD26BD86B597B596958795909389
:1003A0007900809378008FB584608FBD2FEF8FE345
:1003B00092E0215080409040E1F700C0000021967B
:1003C00002C0C0E0D0E0C330D105ACF20F5F1F4FD8
:1003D00002C000E010E0033011059CF321C0209121
:1003E0000E0130910F0140E050E060E070E880E7DE
:1003F00090E00AD137BD26BD86B597B5969587950D
:1004000090937900809378008FB584608FBD2FEF33
:100410008FE793E4215080409040E1F700C0000056
:100420001FBCDF91CF911F910F9108950F931F93E0
:10043000CF93DF93CDB7DEB764970FB6F894DEBFE6
:100440000FBECDBFFE0136968FE0DF011D928A956B
:10045000E9F780913A0190E06FDE80E090E00FC014
:10046000E6E0F0E0EC0FFD1FE80FF91F1082E1E07D
:10047000F0E0EC0FFD1FE80FF91F108201968530A8
:10048000910574F300E010E029C060E080E060DED8
:1004900085E191E051DEAEDE882301F1E1E0F0E09C
:1004A000EC0FFD1FE00FF11F8083E6E0F0E0EC0FA2
:1004B000FD1FE00FF11F8AE2808361E081E048DEEA
:1004C000CE01069639DEBFEF2FE786E1B15020401E
:1004D0008040E1F700C000000F5F1F4F043011059E
:1004E000A4F20430110509F03DC0CE01019606DFEB
:1004F0008130C9F43BDEAFEFBBE61197F1F700C0E6
:10050000000060E081E024DE82E291E015DEB9E9DE
:1005100029EB86E1B15020408040E1F7000081E006
:1005200023DFF5DE18C022DEAFEFBBE61197F1F74F
:1005300000C0000060E081E00BDE87E291E0FCDDBE
:10054000BFEF2FE786E1B15020408040E1F700C0C7
:10055000000080E009DF0ADEAFEFB7E41197F1F7A2
:1005600000C0000064960FB6F894DEBF0FBECDBF8A
:10057000DF91CF911F910F91089588EF80936100D3
:1005800087E0809362008FEF84BB8ABB8093640016
:1005900080E887BB9EB598619EBD9EB591609EBD6B
:1005A00010927A001DBC1CBC89BF8ABF7894E7DD1D
:1005B0002FEF8FE39BE0215080409040E1F700C097
:1005C0000000D4DD8FEF9BE60197F1F700C000003B
:1005D00080913A01882311F029DF0DC0C7DD8FEF2C
:1005E0009BE60197F1F700C0000060E080E0B0DD1D
:1005F0008DE291E0A1DD99E929EB86E1915020405F
:100600008040E1F70000E4CFA1E21A2EAA1BBB1B39
:10061000FD010DC0AA1FBB1FEE1FFF1FA217B307CE
:10062000E407F50720F0A21BB30BE40BF50B661FE4
:10063000771F881F991F1A9469F7609570958095A8
:1006400090959B01AC01BD01CF010895FB01DC0138
:100650008D91019080190110D9F3990B0895F894A8
:02066000FFCFCA
:100662000B024B029302BA020F037003DB03160460
:100672003131313100507265737320427574746F79
:100682006E004F50454E00574F524E47002A2A2ABD
:0A0692004C6F636B65642A2A2A008E
:00000001FF
