:1000000045C0000060C000005EC000005CC0000091
:100010005AC0000058C0000056C0000054C0000084
:10002000D8C0000050C000004EC000004CC000000E
:100030004AC0000048C0000046C0000044C00000A4
:1000400042C0000040C000003EC000003CC00000B4
:100050003AC0000038C0000036C0000034C00000C4
:1000600032C0000030C000002EC000002CC00000D4
:100070002AC0000028C0000026C0000024C00000E4
:1000800022C0000020C000001EC0000011241FBEBE
:10009000CFEFD0E1DEBFCDBF11E0A0E0B1E0E4E200
:1000A000F8E000E00BBF02C007900D92A635B10743
:1000B000D9F721E0A6E5B1E001C01D92A735B2074E
:1000C000E1F741D3ADC39CCFE5E6F0E090819160CC
:1000D000908390819D7F908390819460908390E144
:1000E0009A95F1F700C08BBB80E18A95F1F700C0CB
:1000F00080818B7F80830895E5E6F0E090819E7F8C
:10010000908390819D7F908390819460908390E113
:100110009A95F1F700C08BBB80E18A95F1F700C09A
:1001200080818B7F80830895CFDF89EF90E00197F6
:10013000F1F700C000000895CF93DF93EC0102C0F7
:10014000F3DF219688818111FBCFDF91CF91089554
:1001500090E4899F600D1124862F8068CDDF81EEA9
:1001600094E00197F1F700C00000089581E0C4DF3A
:1001700083EF91E00197F1F700C00000089588E354
:10018000BBDF83EF91E00197F1F700C0000088E347
:10019000B3DF83EF91E00197F1F700C0000088E33F
:1001A000ABDF83EF91E00197F1F700C000008CE036
:1001B000A3DF83EF91E00197F1F700C0000086E034
:1001C0009BDF83EF91E00197F1F700C00000CECFF5
:1001D00008951F920F920FB60F9211248F939F9341
:1001E00081E090915601911180E0809356019F919A
:1001F0008F910F900FBE0F901F9018955D9BFECFB3
:100200008CB98BB180628BB908950F931F93CF93F4
:10021000DF938C01C0E0D0E002C02196EFDFF8014F
:10022000EC0FFD1F80818111F8CFDF91CF911F91DD
:100230000F91089504C080915601882339F05F9B87
:10024000FACF8CB19BB190689BB908958FEF089558
:1002500088E08093620083E397E00197F1F780B133
:100260008770813009F460C080B18770823009F4F2
:100270005DC080B18770843009F45AC08FEF97E475
:100280000197F1F700C0000080E18093620083E3F2
:1002900097E00197F1F780B18770813009F44AC087
:1002A00080B18770823009F447C080B18770843094
:1002B00009F444C08FEF97E40197F1F700C0000004
:1002C00080E28093620083E397E00197F1F780B1C9
:1002D00087708130A9F180B18770823099F180B147
:1002E0008770843089F18FEF97E40197F1F700C0B0
:1002F000000080E48093620083E397E00197F1F7C8
:1003000080B18770813011F180B18770823001F146
:1003100080B187708430F1F08FEF97E40197F1F7A7
:1003200000C0000080E0089581E3089582E308950D
:1003300083E3089584E3089585E3089586E30895AB
:1003400087E3089588E3089589E308958AE208958C
:1003500080E3089583E2089560E171E058D2892B2B
:1003600011F481E0089580E0089580E090E021C0DC
:1003700020E125BBEFEFF7E43197F1F700C0000073
:1003800020E225BBEFEFF7E43197F1F700C0000062
:1003900020E425BBEFEFF7E43197F1F700C0000050
:1003A00020E825BBEFEFF7E43197F1F700C000003C
:1003B000019682339105E4F2FFEF2FE784E0F150DC
:1003C00020408040E1F700C0000008950F931F9384
:1003D000CF93DF938130A9F52EC0FE01EE0FFF1FF2
:1003E000E050FF4F2081318140E050E060E070E854
:1003F00080E790E0EAD137BD26BD86B597B59695E2
:10040000879590937900809378008FB584608FBD35
:100410002FEF8FE392E0215080409040E1F700C041
:100420000000219602C0C0E0D0E0C330D105ACF29C
:100430000F5F1F4F02C000E010E0033011059CF376
:1004400021C020910E0130910F0140E050E060E0AA
:1004500070E880E790E0B9D137BD26BD86B597B585
:100460009695879590937900809378008FB58460F6
:100470008FBD2FEF8FE793E4215080409040E1F74C
:1004800000C000001FBCDF91CF911F910F91089514
:10049000DF92EF92FF920F931F93CF93DF93CDB72D
:1004A000DEB764970FB6F894DEBF0FBECDBFFE0176
:1004B00036968FE0DF011D928A95E9F780E090E0A3
:1004C0000FC0E6E0F0E0EC0FFD1FE80FF91F10820F
:1004D000E1E0F0E0EC0FFD1FE80FF91F108201963C
:1004E0008530910574F3E12CF12C00E0D12C2BC068
:1004F0008091560181112BC060E02ADE85E191E0F8
:100500001BDEA6DE182F081711F08111D82EDD2072
:10051000C9F0E1E0F0E0EC0FFD1FEE0DFF1DD08211
:10052000E6E0F0E0EC0FFD1FEE0DFF1D8AE2808398
:1005300061E081E00DDECE010696FEDDBFEFEB1A35
:10054000FB0AD12C012F24E0E216F1048CF284E0A6
:10055000E816F10409F03DC0CE010196FDDE8130C0
:10056000C9F404DEAFEFBBE61197F1F700C000005D
:1005700060E081E0EDDD85E491E0DEDDB9E929EBC5
:1005800086E1B15020408040E1F7000081E01EDFAD
:10059000ECDE18C0EBDDAFEFBBE61197F1F700C062
:1005A000000060E081E0D4DD8CE491E0C5DDBFEFC8
:1005B0002FE786E1B15020408040E1F700C0000005
:1005C00080E004DFD3DDAFEFB7E41197F1F700C0AF
:1005D000000064960FB6F894DEBF0FBECDBFDF916A
:1005E000CF911F910F91FF90EF90DF9008950F939F
:1005F0001F93CF93DF93CDB7DEB764970FB6F89410
:10060000DEBF0FBECDBFFE0136968FE0DF011D922B
:100610008A95E9F780E090E00FC0E6E0F0E0EC0FAB
:10062000FD1FE80FF91F1082E1E0F0E0EC0FFD1F65
:10063000E80FF91F108201968530910574F382E26C
:1006400091E0E3DD00E010E026C060E080E080DDC6
:1006500085E391E071DDEEDD909156019923F1F093
:100660008823C9F0E1E0F0E0EC0FFD1FE00FF11F7F
:100670008083E6E0F0E0EC0FFD1FE00FF11F8AE25F
:10068000808361E081E064DDCE01069655DD8AE27B
:10069000B5DD0F5F1F4F04301105BCF204301105AA
:1006A00009F046C0CE01019657DE8130E1F45EDDEF
:1006B0008FEF9BE60197F1F700C0000060E081E05A
:1006C00047DD85E491E038DD83E491E09EDD99E942
:1006D000A9EBB6E19150A040B040E1F7000081E005
:1006E00075DE43DE1BC042DD8FEF9BE60197F1F71D
:1006F00000C0000060E081E02BDD8CE491E01CDDB7
:100700008AE491E082DD9FEFAFE7B6E19150A0402F
:10071000B040E1F700C0000080E058DE27DD8FEF39
:1007200097E40197F1F700C0000082E591E06DDDEC
:1007300064960FB6F894DEBF0FBECDBFDF91CF91A8
:100740001F910F91089588EF8093610087E0809357
:1007500062008FEF84BB8ABB8093640080E887BB14
:1007600092E092B99EB598619EBD9EB591609EBD86
:1007700010927A001DBC1CBC1BB89AB198619AB942
:10078000E5E9F0E09081966090831092900093E00C
:1007900099B989BF8ABF7894F2DC2FEF8FE39BE091
:1007A000215080409040E1F700C00000DFDC8FEF77
:1007B0009BE60197F1F700C0000080915601882365
:1007C00011F015DFFACF64DEF8CFA1E21A2EAA1BD2
:1007D000BB1BFD010DC0AA1FBB1FEE1FFF1FA217F1
:1007E000B307E407F50720F0A21BB30BE40BF50BEE
:1007F000661F771F881F991F1A9469F76095709577
:10080000809590959B01AC01BD01CF010895FB013E
:10081000DC018D91019080190110D9F3990B089595
:04082000F894FFCF7A
:100824000B024B029302BA020F037003DB0316049C
:100834003131313100507265737320427574746FB5
:100844006E000D0A5072657373206E756D62657269
:1008540073203A20005072657373206E756D626563
:100864007273000D0A4F50454E000D0A574F524EF9
:0608740047000D0A000020
:00000001FF
