S01800004469676974616C20446F6F726C6F636B2E73726563F1
S113000045C0000058C0000056C0000054C00000A5
S113001052C0000050C000004EC000004CC00000A0
S11300204AC0000048C0000046C0000044C00000B0
S113003042C0000040C000003EC000003CC00000C0
S11300403AC0000038C0000036C0000034C00000D0
S113005032C0000030C000002EC000002CC00000E0
S11300602AC0000028C0000026C0000024C00000F0
S113007022C0000020C000001EC000001CC0000000
S11300801AC0000018C0000016C0000011241FBED2
S1130090CFEFD0E1DEBFCDBF11E0A0E0B1E0E2EDF3
S11300A0F5E000E00BBF02C007900D92AE32B1073D
S11300B0D9F7A3D18CC2A4CFE5E6F0E0908191609A
S11300C0908390819D7F908390819460908390E150
S11300D09A95F1F700C08BBB80E18A95F1F700C0D7
S11300E080818B7F80830895E5E6F0E090819E7F98
S11300F0908390819D7F908390819460908390E120
S11301009A95F1F700C08BBB80E18A95F1F700C0A6
S113011080818B7F80830895CFDF89EF90E0019702
S1130120F1F700C000000895CF93DF93EC0102C003
S1130130F3DF219688818111FBCFDF91CF91089560
S113014090E4899F600D1124862F8068CDDF81EEB5
S113015094E00197F1F700C00000089581E0C4DF46
S113016083EF91E00197F1F700C00000089588E360
S1130170BBDF83EF91E00197F1F700C0000088E353
S1130180B3DF83EF91E00197F1F700C0000088E34B
S1130190ABDF83EF91E00197F1F700C000008CE042
S11301A0A3DF83EF91E00197F1F700C0000086E040
S11301B09BDF83EF91E00197F1F700C00000CECF01
S11301C0089588E08093620083E397E00197F1F754
S11301D080B18770813009F460C080B1877082304B
S11301E009F45DC080B18770843009F45AC08FEF80
S11301F097E40197F1F700C0000080E1809362006A
S113020083E397E00197F1F780B18770813009F4B7
S11302104AC080B18770823009F447C080B18770CA
S1130220843009F444C08FEF97E40197F1F700C0DC
S1130230000080E28093620083E397E00197F1F786
S113024080B187708130A9F180B18770823099F1D3
S113025080B18770843089F18FEF97E40197F1F7CB
S113026000C0000080E48093620083E397E001977C
S1130270F1F780B18770813011F180B187708230DD
S113028001F180B187708430F1F08FEF97E401972A
S1130290F1F700C0000080E0089581E3089582E34F
S11302A0089583E3089584E3089585E3089586E338
S11302B0089587E3089588E3089589E308958AE219
S11302C0089580E3089583E2089560E171E076D1B2
S11302D0892B11F481E0089580E0089580E185BBC5
S11302E02FEF8FE796E1215080409040E1F700C066
S11302F0000080E285BB2FEF8FE796E1215080401C
S11303009040E1F700C0000080E485BB2FEF8FE749
S113031096E1215080409040E1F700C0000080E861
S113032085BB2FEF8FEF9CE2215080409040E1F796
S113033000C0000008950F931F93CF93DF93813083
S1130340A9F52EC0FE01EE0FFF1FE050FF4F2081E4
S1130350318140E050E060E070E880E790E00CD14B
S113036037BD26BD86B597B5969587959093790048
S1130370809378008FB584608FBD2FEF8FE392E078
S1130380215080409040E1F700C00000219602C057
S1130390C0E0D0E0C330D105ACF20F5F1F4F02C004
S11303A000E010E0033011059CF321C020910E0100
S11303B030910F0140E050E060E070E880E790E0A9
S11303C0DBD037BD26BD86B597B5969587959093B6
S11303D07900809378008FB584608FBD2FEF8FE70D
S11303E093E4215080409040E1F700C000001FBC1E
S11303F0DF91CF911F910F910895CF93DF93CDB7E4
S1130400DEB764970FB6F894DEBF0FBECDBF88EF9A
S11304108093610087E0809362008FEF84BB8ABB86
S11304208093640080E887BB8EB588618EBD8EB5ED
S113043081608EBD10927A001DBC1CBCFE013696F4
S11304408FE0DF011D928A95E9F791DEBFEF2FE37C
S11304508BE0B15020408040E1F700C000007EDE18
S1130460AFEFBBE61197F1F700C0000000E010E029
S113047080E090E00FC0E6E0F0E0EC0FFD1FE80F35
S1130480F91F1082E1E0F0E0EC0FFD1FE80FF91F07
S1130490108201968530910574F329C060E080E0F4
S11304A04FDE85E191E040DE8CDE882301F1E1E05E
S11304B0F0E0EC0FFD1FE00FF11F8083E6E0F0E0B9
S11304C0EC0FFD1FE00FF11F8AE2808361E081E001
S11304D037DECE01069628DEBFEF2FE786E1B15066
S11304E020408040E1F700C000000F5F1F4F043040
S11304F01105A4F20430110509F0BACFCE0101961A
S1130500E4DE8130C9F42ADEAFEFBBE61197F1F7E0
S113051000C0000060E081E013DE82E291E004DECE
S1130520B9E929EB86E1B15020408040E1F70000B1
S113053081E001DFD3DE18C011DEAFEFBBE6119717
S1130540F1F700C0000060E081E0FADD87E291E0AD
S1130550EBDDBFEF2FE786E1B15020408040E1F7AB
S113056000C0000080E0E7DEF9DDAFEFB7E41197EB
S1130570F1F700C000007ACFA1E21A2EAA1BBB1B20
S1130580FD010DC0AA1FBB1FEE1FFF1FA217B3075B
S1130590E407F50720F0A21BB30BE40BF50B661F71
S11305A0771F881F991F1A9469F760957095809535
S11305B090959B01AC01BD01CF010895FB01DC01C5
S11305C08D91019080190110D9F3990B0895F89435
S10505D0FFCF57
S11305D20B024B029302BA020F037003DB031604ED
S11305E23131313100507265737320427574746F06
S11105F26E004F50454E00574F524E470000CA
S9030000FC
