:1000000045C0000060C000005EC000005CC0000091
:100010005AC0000058C0000056C0000054C0000084
:1000200052C0000050C000004EC000004CC0000094
:100030004AC0000048C0000046C0000059C000008F
:1000400042C0000040C000003EC000003CC00000B4
:100050003AC0000038C0000036C0000034C00000C4
:1000600032C0000030C000002EC000002CC00000D4
:100070002AC0000028C0000026C0000024C00000E4
:1000800022C0000020C000001EC0000011241FBEBE
:10009000CFEFD0E1DEBFCDBF11E0A0E0B1E0E4ECF6
:1000A000F3E000E00BBF02C007900D92A031B10752
:1000B000D9F721E0A0E1B1E001C01D92A231B20761
:1000C000E1F702D07DC19CCF8FEF8ABB87E083BF71
:1000D00088E481BF82E087BF86B7826086BF78945C
:1000E000E0911101F0E0E050FF4F80818BBBF8CF31
:1000F0001F920F920FB60F9211240BB60F922F93EF
:100100003F934F935F936F937F938F939F93AF939F
:10011000BF93EF93FF93F89461B770E080E090E0B5
:10012000C3D020E030E040E952E42CD08FD061BF52
:10013000809110018F5F80931001843671F480915B
:100140001101843118F01092110105C08091110144
:100150008F5F80931101109210017894FF91EF91BD
:10016000BF91AF919F918F917F916F915F914F91CF
:100170003F912F910F900BBE0F900FBE0F901F90CD
:1001800018955058BB27AA270ED0E0C0D1D030F028
:10019000D6D020F031F49F3F11F41EF4C6C00EF407
:1001A000E095E7FBBCC0E92FE2D080F3BA17620705
:1001B00073078407950718F071F49EF5FAC00EF4E2
:1001C000E0950B2EBA2FA02D0B01B90190010C0167
:1001D000CA01A0011124FF27591B99F0593F50F47F
:1001E000503E68F11A16F040A22F232F342F4427D7
:1001F000585FF3CF469537952795A795F0405395CF
:10020000C9F77EF41F16BA0B620B730B840BBAF09E
:100210009150A1F0FF0FBB1F661F771F881FC2F709
:100220000EC0BA0F621F731F841F48F4879577951D
:100230006795B795F7959E3F08F0B3CF9395880FD4
:1002400008F09927EE0F97958795089598D088F034
:100250009F5790F0B92F9927B751A0F0D1F0660FB2
:10026000771F881F991F1AF0BA95C9F712C0B130CD
:1002700081F09FD0B1E008959CC0672F782F882728
:10028000B85F39F0B93FCCF3869577956795B3950C
:10029000D9F73EF490958095709561957F4F8F4F7B
:1002A0009F4F0895E89409C097FB3EF49095809580
:1002B000709561957F4F8F4F9F4F9923A9F0F92F2C
:1002C00096E9BB279395F695879577956795B795AA
:1002D000F111F8CFFAF4BB0F11F460FF1BC06F5F90
:1002E0007F4F8F4F9F4F16C0882311F096E911C0A2
:1002F000772321F09EE8872F762F05C0662371F0C3
:1003000096E8862F70E060E02AF09A95660F771FD6
:10031000881FDAF7880F9695879597F9089597F9CA
:100320009F6780E870E060E008959FEF80EC08959B
:1003300000240A94161617061806090608950024C4
:100340000A9412161306140605060895092E03943E
:10035000000C11F4882352F0BB0F40F4BF2B11F4B2
:1003600060FF04C06F5F7F4F8F4F9F4F089557FD11
:100370009058440F551F59F05F3F71F04795880F13
:1003800097FB991F61F09F3F79F0879508951216AA
:1003900013061406551FF2CF4695F1DF08C0161656
:1003A00017061806991FF1CF869571056105089407
:1003B0000895E894BB2766277727CB0197F908951E
:0403C000F894FFCFDF
:1003C4003F065B4F666D7D277F6F777C395E797161
:00000001FF
